{
  "contractName": "Payroll",
  "abi": [
    {
      "inputs": [],
      "payable": false,
      "stateMutability": "nonpayable",
      "type": "constructor"
    },
    {
      "constant": false,
      "inputs": [
        {
          "name": "ID",
          "type": "address"
        }
      ],
      "name": "setBoss",
      "outputs": [],
      "payable": false,
      "stateMutability": "nonpayable",
      "type": "function"
    },
    {
      "constant": false,
      "inputs": [],
      "name": "getBoss",
      "outputs": [
        {
          "name": "",
          "type": "address"
        }
      ],
      "payable": false,
      "stateMutability": "nonpayable",
      "type": "function"
    },
    {
      "constant": false,
      "inputs": [
        {
          "name": "ID",
          "type": "address"
        },
        {
          "name": "salary",
          "type": "uint256"
        },
        {
          "name": "bonus",
          "type": "uint256"
        }
      ],
      "name": "addEmployee",
      "outputs": [],
      "payable": false,
      "stateMutability": "nonpayable",
      "type": "function"
    },
    {
      "constant": false,
      "inputs": [
        {
          "name": "ID",
          "type": "address"
        }
      ],
      "name": "removeEmployee",
      "outputs": [
        {
          "name": "salary2",
          "type": "uint256"
        }
      ],
      "payable": false,
      "stateMutability": "nonpayable",
      "type": "function"
    },
    {
      "constant": false,
      "inputs": [
        {
          "name": "ID",
          "type": "address"
        },
        {
          "name": "sal",
          "type": "uint256"
        }
      ],
      "name": "updateEmployee",
      "outputs": [],
      "payable": false,
      "stateMutability": "nonpayable",
      "type": "function"
    },
    {
      "constant": false,
      "inputs": [
        {
          "name": "ID",
          "type": "address"
        },
        {
          "name": "bonus",
          "type": "uint256"
        }
      ],
      "name": "addBonus",
      "outputs": [],
      "payable": false,
      "stateMutability": "nonpayable",
      "type": "function"
    },
    {
      "constant": false,
      "inputs": [
        {
          "name": "ID",
          "type": "address"
        }
      ],
      "name": "getEmployee",
      "outputs": [
        {
          "name": "salary",
          "type": "uint256"
        },
        {
          "name": "past",
          "type": "uint256"
        },
        {
          "name": "bonus",
          "type": "uint256"
        }
      ],
      "payable": false,
      "stateMutability": "nonpayable",
      "type": "function"
    },
    {
      "constant": false,
      "inputs": [],
      "name": "getTotalemployee",
      "outputs": [
        {
          "name": "",
          "type": "uint256"
        }
      ],
      "payable": false,
      "stateMutability": "nonpayable",
      "type": "function"
    },
    {
      "constant": false,
      "inputs": [],
      "name": "addFund",
      "outputs": [
        {
          "name": "",
          "type": "uint256"
        }
      ],
      "payable": true,
      "stateMutability": "payable",
      "type": "function"
    },
    {
      "constant": false,
      "inputs": [],
      "name": "getBalance",
      "outputs": [
        {
          "name": "",
          "type": "uint256"
        }
      ],
      "payable": false,
      "stateMutability": "nonpayable",
      "type": "function"
    },
    {
      "constant": false,
      "inputs": [],
      "name": "calculateSalary",
      "outputs": [
        {
          "name": "",
          "type": "uint256"
        }
      ],
      "payable": false,
      "stateMutability": "nonpayable",
      "type": "function"
    },
    {
      "constant": false,
      "inputs": [],
      "name": "isFundEnough",
      "outputs": [
        {
          "name": "",
          "type": "bool"
        }
      ],
      "payable": false,
      "stateMutability": "nonpayable",
      "type": "function"
    },
    {
      "constant": false,
      "inputs": [],
      "name": "getPaid",
      "outputs": [],
      "payable": true,
      "stateMutability": "payable",
      "type": "function"
    },
    {
      "constant": false,
      "inputs": [],
      "name": "getBonus",
      "outputs": [],
      "payable": true,
      "stateMutability": "payable",
      "type": "function"
    }
  ],
  "bytecode": "0x608060405234801561001057600080fd5b5060006002819055506000600381905550600060048190555033600160006101000a81548173ffffffffffffffffffffffffffffffffffffffff021916908373ffffffffffffffffffffffffffffffffffffffff160217905550611264806100796000396000f3006080604052600436106100d0576000357c0100000000000000000000000000000000000000000000000000000000900463ffffffff16806312065fe0146100d557806332648e09146101005780635a93cc8f146101655780635e91d8ec146101b2578063624ea26a146101ff5780637e9300c11461022a5780638bdff16114610259578063a2f09dfa14610263578063a3acc8f214610281578063a7efbc8e146102ac578063c76d9e7d146102ef578063cf41d6f814610346578063d108177a14610350578063f39d0aeb146103a7575b600080fd5b3480156100e157600080fd5b506100ea6103fe565b6040518082815260200191505060405180910390f35b34801561010c57600080fd5b50610141600480360381019080803573ffffffffffffffffffffffffffffffffffffffff169060200190929190505050610408565b60405180848152602001838152602001828152602001935050505060405180910390f35b34801561017157600080fd5b506101b0600480360381019080803573ffffffffffffffffffffffffffffffffffffffff169060200190929190803590602001909291905050506104b2565b005b3480156101be57600080fd5b506101fd600480360381019080803573ffffffffffffffffffffffffffffffffffffffff16906020019092919080359060200190929190505050610600565b005b34801561020b57600080fd5b5061021461085b565b6040518082815260200191505060405180910390f35b34801561023657600080fd5b5061023f61087c565b604051808215151515815260200191505060405180910390f35b61026161088d565b005b61026b6109e5565b6040518082815260200191505060405180910390f35b34801561028d57600080fd5b50610296610a5d565b6040518082815260200191505060405180910390f35b3480156102b857600080fd5b506102ed600480360381019080803573ffffffffffffffffffffffffffffffffffffffff169060200190929190505050610a67565b005b3480156102fb57600080fd5b50610304610b14565b604051808273ffffffffffffffffffffffffffffffffffffffff1673ffffffffffffffffffffffffffffffffffffffff16815260200191505060405180910390f35b61034e610b3e565b005b34801561035c57600080fd5b50610391600480360381019080803573ffffffffffffffffffffffffffffffffffffffff169060200190929190505050610cae565b6040518082815260200191505060405180910390f35b3480156103b357600080fd5b506103fc600480360381019080803573ffffffffffffffffffffffffffffffffffffffff1690602001909291908035906020019092919080359060200190929190505050610f6e565b005b6000600454905090565b6000806000806000808673ffffffffffffffffffffffffffffffffffffffff1673ffffffffffffffffffffffffffffffffffffffff168152602001908152602001600020905060008160000160009054906101000a900473ffffffffffffffffffffffffffffffffffffffff1673ffffffffffffffffffffffffffffffffffffffff161415151561049557fe5b806001015493508060020154925080600301549150509193909250565b6000600160009054906101000a900473ffffffffffffffffffffffffffffffffffffffff1673ffffffffffffffffffffffffffffffffffffffff163373ffffffffffffffffffffffffffffffffffffffff1614151561051057600080fd5b6000808473ffffffffffffffffffffffffffffffffffffffff1673ffffffffffffffffffffffffffffffffffffffff168152602001908152602001600020905060008160000160009054906101000a900473ffffffffffffffffffffffffffffffffffffffff1673ffffffffffffffffffffffffffffffffffffffff161415151561059757fe5b6105b681600301546105b184670de0b6b3a764000061118e565b6111cc565b6000808573ffffffffffffffffffffffffffffffffffffffff1673ffffffffffffffffffffffffffffffffffffffff16815260200190815260200160002060030181905550505050565b600080600160009054906101000a900473ffffffffffffffffffffffffffffffffffffffff1673ffffffffffffffffffffffffffffffffffffffff163373ffffffffffffffffffffffffffffffffffffffff1614151561065f57600080fd5b6000808573ffffffffffffffffffffffffffffffffffffffff1673ffffffffffffffffffffffffffffffffffffffff168152602001908152602001600020915060008260000160009054906101000a900473ffffffffffffffffffffffffffffffffffffffff1673ffffffffffffffffffffffffffffffffffffffff16141515156106e657fe5b61070d82600101546107086106ff4286600201546111ed565b62278d0061120e565b61118e565b905061071f60025483600101546111ed565b6002819055508160000160009054906101000a900473ffffffffffffffffffffffffffffffffffffffff1673ffffffffffffffffffffffffffffffffffffffff166108fc829081150290604051600060405180830381858888f1935050505015801561078f573d6000803e3d6000fd5b5061079c600454826111ed565b6004819055506107b483670de0b6b3a764000061118e565b6000808673ffffffffffffffffffffffffffffffffffffffff1673ffffffffffffffffffffffffffffffffffffffff16815260200190815260200160002060010181905550426000808673ffffffffffffffffffffffffffffffffffffffff1673ffffffffffffffffffffffffffffffffffffffff1681526020019081526020016000206002018190555061084f60025483600101546111cc565b60028190555050505050565b6000600254670de0b6b3a76400006004540281151561087657fe5b04905090565b60008061088761085b565b11905090565b60008060003373ffffffffffffffffffffffffffffffffffffffff1673ffffffffffffffffffffffffffffffffffffffff168152602001908152602001600020905060008160000160009054906101000a900473ffffffffffffffffffffffffffffffffffffffff1673ffffffffffffffffffffffffffffffffffffffff161415151561091657fe5b8060000160009054906101000a900473ffffffffffffffffffffffffffffffffffffffff1673ffffffffffffffffffffffffffffffffffffffff166108fc82600301549081150290604051600060405180830381858888f19350505050158015610984573d6000803e3d6000fd5b5061099560045482600301546111ed565b60048190555060008060003373ffffffffffffffffffffffffffffffffffffffff1673ffffffffffffffffffffffffffffffffffffffff1681526020019081526020016000206003018190555050565b6000600160009054906101000a900473ffffffffffffffffffffffffffffffffffffffff1673ffffffffffffffffffffffffffffffffffffffff163373ffffffffffffffffffffffffffffffffffffffff16141515610a4357600080fd5b610a4f600454346111cc565b600481905550600454905090565b6000600354905090565b60006003541480610ac55750600160009054906101000a900473ffffffffffffffffffffffffffffffffffffffff1673ffffffffffffffffffffffffffffffffffffffff163373ffffffffffffffffffffffffffffffffffffffff16145b1515610ad057600080fd5b80600160006101000a81548173ffffffffffffffffffffffffffffffffffffffff021916908373ffffffffffffffffffffffffffffffffffffffff16021790555050565b6000600160009054906101000a900473ffffffffffffffffffffffffffffffffffffffff16905090565b6000806000803373ffffffffffffffffffffffffffffffffffffffff1673ffffffffffffffffffffffffffffffffffffffff168152602001908152602001600020915060008260000160009054906101000a900473ffffffffffffffffffffffffffffffffffffffff1673ffffffffffffffffffffffffffffffffffffffff1614151515610bc857fe5b62278d0082600201540190504281101515610bdf57fe5b806000803373ffffffffffffffffffffffffffffffffffffffff1673ffffffffffffffffffffffffffffffffffffffff16815260200190815260200160002060020181905550610c3560045483600101546111ed565b6004819055508160000160009054906101000a900473ffffffffffffffffffffffffffffffffffffffff1673ffffffffffffffffffffffffffffffffffffffff166108fc83600101549081150290604051600060405180830381858888f19350505050158015610ca9573d6000803e3d6000fd5b505050565b600080600160009054906101000a900473ffffffffffffffffffffffffffffffffffffffff1673ffffffffffffffffffffffffffffffffffffffff163373ffffffffffffffffffffffffffffffffffffffff16141515610d0d57600080fd5b6000808473ffffffffffffffffffffffffffffffffffffffff1673ffffffffffffffffffffffffffffffffffffffff168152602001908152602001600020905060008160000160009054906101000a900473ffffffffffffffffffffffffffffffffffffffff1673ffffffffffffffffffffffffffffffffffffffff1614151515610d9457fe5b610dbb8160010154610db6610dad4285600201546111ed565b62278d0061120e565b61118e565b9150610dcd60025482600101546111ed565b600281905550610ddf600454836111ed565b600481905550610df560045482600301546111ed565b6004819055508060000160009054906101000a900473ffffffffffffffffffffffffffffffffffffffff1673ffffffffffffffffffffffffffffffffffffffff166108fc839081150290604051600060405180830381858888f19350505050158015610e65573d6000803e3d6000fd5b508060000160009054906101000a900473ffffffffffffffffffffffffffffffffffffffff1673ffffffffffffffffffffffffffffffffffffffff166108fc82600301549081150290604051600060405180830381858888f19350505050158015610ed4573d6000803e3d6000fd5b506000808473ffffffffffffffffffffffffffffffffffffffff1673ffffffffffffffffffffffffffffffffffffffff168152602001908152602001600020600080820160006101000a81549073ffffffffffffffffffffffffffffffffffffffff02191690556001820160009055600282016000905560038201600090555050610f6260035460016111ed565b60038190555050919050565b6000600160009054906101000a900473ffffffffffffffffffffffffffffffffffffffff1673ffffffffffffffffffffffffffffffffffffffff163373ffffffffffffffffffffffffffffffffffffffff16141515610fcc57600080fd5b6000808573ffffffffffffffffffffffffffffffffffffffff1673ffffffffffffffffffffffffffffffffffffffff168152602001908152602001600020905060008160000160009054906101000a900473ffffffffffffffffffffffffffffffffffffffff1673ffffffffffffffffffffffffffffffffffffffff1614151561105257fe5b6080604051908101604052808573ffffffffffffffffffffffffffffffffffffffff16815260200161108c85670de0b6b3a764000061118e565b81526020014281526020016110a984670de0b6b3a764000061118e565b8152506000808673ffffffffffffffffffffffffffffffffffffffff1673ffffffffffffffffffffffffffffffffffffffff16815260200190815260200160002060008201518160000160006101000a81548173ffffffffffffffffffffffffffffffffffffffff021916908373ffffffffffffffffffffffffffffffffffffffff16021790555060208201518160010155604082015181600201556060820151816003015590505061116f60025461116a85670de0b6b3a764000061118e565b6111cc565b60028190555061118260035460016111cc565b60038190555050505050565b60008060008414156111a357600091506111c5565b82840290508284828115156111b457fe5b041415156111c157600080fd5b8091505b5092915050565b60008082840190508381101515156111e357600080fd5b8091505092915050565b6000808383111515156111ff57600080fd5b82840390508091505092915050565b60008060008311151561122057600080fd5b828481151561122b57fe5b04905080915050929150505600a165627a7a72305820b0aee487a16bc1d120a21432772c7abfb1622bc47bb114dc8b8a8df76252629b0029",
  "source": "pragma solidity ^0.4.24;\r\n\r\nimport \"./SafeMath.sol\";\r\n\r\ncontract Payroll{\r\n\tuint constant Days = 30 days;\r\n\tstruct Employee{\r\n\t    address id;\r\n\t\tuint salary;\r\n\t\tuint past;\t\r\n\t\tuint bonus;\r\n\t}\r\n\r\n\tmapping(address => Employee) employees;\r\n\r\n\taddress boss;\r\n\tuint totalSalary;\r\n\tuint totalEmployee;\r\n\tuint balance2;\r\n\r\n\tconstructor(){\r\n\t\ttotalSalary = 0;\r\n\t\ttotalEmployee = 0;\r\n\t\tbalance2 = 0;\r\n\t\tboss = msg.sender;\r\n\t}\r\n\r\n\tfunction setBoss(address ID){\r\n\t\trequire((totalEmployee == 0)||(msg.sender==boss));\r\n\t\tboss = ID;\r\n\t}\r\n\r\n\tfunction getBoss() returns(address)\r\n\t{\r\n\t\treturn boss;\r\n\t}\r\n\r\n\tfunction addEmployee(address ID, uint salary, uint bonus) {\r\n\t    //check sender\r\n\t\trequire(msg.sender == boss);\r\n        \r\n        //check employee already exists\r\n\t\tvar employee = employees[ID];\r\n\t\tassert(employee.id == 0x0);\r\n\t\t// add employee\r\n\t\temployees[ID] = Employee(ID, SafeMath.mul(salary, 1 ether), now,  SafeMath.mul(bonus, 1 ether));\r\n\t\ttotalSalary  = SafeMath.add(totalSalary, SafeMath.mul(salary, 1 ether));\r\n\t\ttotalEmployee = SafeMath.add(totalEmployee, 1);\r\n\t}\r\n\r\n\tfunction removeEmployee(address ID) returns(uint salary2){\r\n\t\trequire(msg.sender == boss);\r\n        \r\n        //check employee not exists\r\n\t\tvar employee = employees[ID];\r\n\t\tassert(employee.id != 0x0);\r\n\t\t\r\n\t\t// compute salary\r\n\t\tsalary2 = SafeMath.mul(employee.salary, SafeMath.div(SafeMath.sub(now, employee.past), Days));\r\n\t\ttotalSalary = SafeMath.sub(totalSalary, employee.salary);\r\n\t\t\r\n\t\t//transfer\r\n\t\tbalance2 = SafeMath.sub(balance2, salary2);\r\n\t\tbalance2 = SafeMath.sub(balance2, employee.bonus);\r\n\t\temployee.id.transfer(salary2);\r\n\t\temployee.id.transfer(employee.bonus);\r\n\t\tdelete employees[ID];\r\n\t\ttotalEmployee = SafeMath.sub(totalEmployee, 1);\r\n\t\t/*employees[i] = employee[employee.length - 1]\r\n\t\temployees.length -= 1;*/\r\n\t}\r\n\r\n\tfunction updateEmployee(address ID, uint sal){\r\n\t\trequire(msg.sender == boss);\r\n\r\n\t\tvar employee = employees[ID];\r\n\t\tassert(employee.id != 0x0);\r\n\r\n\t\tuint salary2  = SafeMath.mul(employee.salary, SafeMath.div(SafeMath.sub(now, employee.past), Days));\r\n\t\ttotalSalary = SafeMath.sub(totalSalary, employee.salary);\r\n\t\temployee.id.transfer(salary2);\r\n\t\tbalance2 = SafeMath.sub(balance2, salary2);\r\n\t\t//update salary\r\n\t\temployees[ID].salary =  SafeMath.mul(sal, 1 ether);\r\n\t\temployees[ID].past  = now;\r\n\t\ttotalSalary = SafeMath.add(totalSalary, employee.salary);\r\n\t}\r\n\r\n\tfunction addBonus(address ID, uint bonus){\r\n\t\trequire(msg.sender == boss);\r\n\r\n\t\tvar employee = employees[ID];\r\n\t\tassert(employee.id != 0x0);\r\n\t\t// add bonus\r\n\t\temployees[ID].bonus = SafeMath.add((employee.bonus), SafeMath.mul(bonus, 1 ether));\r\n\t}\r\n\r\n\r\n\tfunction getEmployee(address ID) returns(uint salary, uint past, uint bonus){\r\n\t\tvar employee = employees[ID];\r\n\t\tassert(employee.id != 0x0);\r\n\t\tsalary = employee.salary;\r\n\t\tpast = employee.past;\r\n\t\tbonus = employee.bonus;\r\n\t}\r\n\r\n\tfunction getTotalemployee() returns(uint){\r\n\t\treturn totalEmployee;\r\n\t}\r\n\r\n\tfunction addFund() payable returns(uint){\r\n\t    require(msg.sender == boss);\r\n\t\t//this.balance = msg.value;\r\n\t\tbalance2 = SafeMath.add(balance2, msg.value);\r\n\t\treturn balance2;\r\n\t}\r\n\r\n\tfunction getBalance() returns(uint){\r\n\t\treturn balance2;\r\n\t}\r\n\r\n\tfunction calculateSalary() returns(uint){\r\n\t\treturn (balance2 * 1 ether)/totalSalary;\r\n\t}\r\n\r\n\tfunction isFundEnough() returns(bool){\r\n\t\treturn calculateSalary() > 0;\r\n\t}\r\n\r\n\tfunction getPaid() payable{\r\n\t    // get employee\r\n\t\tvar employee = employees[msg.sender];\r\n\t\tassert(employee.id != 0x0);\r\n\t\t\r\n\t\t//check if it's time to pay\r\n\t\tuint next = employee.past + Days;\r\n\t\t/*if(next > now)\r\n\t\t{\r\n\t\t\trevert();\r\n\t\t}*/\r\n\r\n\t\tassert(next < now);\r\n\t\t// transfer payment\r\n\t\temployees[msg.sender].past = next;\r\n\t\tbalance2 = SafeMath.sub(balance2, employee.salary);\r\n\t\temployee.id.transfer(employee.salary);\r\n\t}\r\n\r\n\tfunction getBonus() payable{\r\n\t\tvar employee = employees[msg.sender];\r\n\t\tassert(employee.id != 0x0);\t\r\n\t\t// transfer bonus\r\n\t\temployee.id.transfer(employee.bonus);\r\n\t\tbalance2 = SafeMath.sub(balance2, employee.bonus);\r\n\t\temployees[msg.sender].bonus = 0;\t\r\n\t}\r\n}",
  "sourcePath": "C:\\Users\\lenovo\\Desktop\\区块链\\privatechain\\payoff3\\contracts\\payroll.sol",
  "compiler": {
    "name": "solc",
    "version": "0.4.24+commit.e67f0147.Emscripten.clang"
  },
  "schemaVersion": "2.0.1",
  "updatedAt": "2018-12-27T13:02:20.642Z"
}